:100000000C94AB030C94C8030C94C8030C94C80361
:100010000C94C8030C94C8030C94C8030C94C80334
:100020000C94C8030C94C8030C94C8030C94C80324
:100030000C94C8030C94C8030C94C8030C94C80314
:100040000C94C8030C94C8030C94C8030C94C80304
:100050000C94C8034156526E65742056312E3100FF
:100060004156526E65742056312E312062792041FE
:100070005652706F7274616C2E636F6D003C6272C9
:100080003E003C68722077696474683D22313030EC
:1000900025222073697A653D2231223E3C62723E00
:1000A000003C666F726D20616374696F6E3D222E35
:1000B0002F3F22206D6574686F643D22676574224E
:1000C0003E003C6120687265663D222E2F223E3C38
:1000D000623E3C666F6E7420636F6C6F723D2223CC
:1000E000303030303939222073697A653D222B3126
:1000F000223E526566726573683C2F666F6E743E71
:100100003C2F623E3C2F613E003C696E707574204E
:10011000747970653D227375626D69742220766111
:100120006C75653D225772697465204C4344223ECC
:100130003C2F666F726D3E003C696E707574206E68
:10014000616D653D226C6364322220747970653D77
:100150002274657874222073697A653D22313622D3
:10016000206D61786C656E6774683D223136223E81
:10017000204C4344204C696E6520323C62723E0044
:100180003C696E707574206E616D653D226C6364B0
:10019000312220747970653D227465787422207351
:1001A000697A653D22313622206D61786C656E6713
:1001B00074683D223136223E204C4344204C696E07
:1001C0006520313C62723E00223E203C696E7075B3
:1001D0007420747970653D227375626D6974222094
:1001E00076616C75653D2253657276657220495063
:1001F000223E3C2F666F726D3E003C696E707574D6
:10020000206E616D653D227369702220747970657E
:100210003D2274657874222073697A653D223135F8
:1002200022206D61786C656E6774683D22313522DD
:100230002076616C75653D2200223E203C696E701F
:10024000757420747970653D227375626D697422CE
:100250002076616C75653D22415652204950223E00
:100260003C2F666F726D3E003C696E707574206E37
:10027000616D653D226169702220747970653D224F
:1002800074657874222073697A653D2231352220A5
:100290006D61786C656E6774683D22313522207619
:1002A000616C75653D2200223E204D696E75746556
:1002B000733C696E70757420747970653D22737536
:1002C000626D6974222076616C75653D224F4B2208
:1002D0003E3C2F666F726D3E00223E20486F757265
:1002E00073203C494E50555420545950453D22747A
:1002F00065787422204E414D453D226D2220736960
:100300007A653D223222206D61786C656E67746873
:100310003D2232222056414C55453D22003C494E5B
:1003200050555420545950453D227465787422200C
:100330004E414D453D2268222073697A653D223247
:1003400022206D61786C656E6774683D22322220D0
:1003500056414C55453D22003E20456E61626C651C
:100360002000434845434B4544003C494E505554BA
:1003700020545950453D2268696464656E22204EC0
:10038000414D453D227463222056414C55453D2246
:1003900031223E53656E642054656D7061726174E4
:1003A00075726520696E203C494E50555420545951
:1003B00050453D22636865636B626F7822204E4131
:1003C0004D453D22656E2200266465673B433C62D5
:1003D000723E003C62723E3C62723E54656D7061DA
:1003E000726174757265203D200041434430203DA8
:1003F00020003C2F613E205D3C62723E3C62723EBA
:100400000030223E4F46460031223E4F4E003C2FE8
:10041000666F6E743E205B203C6120687265663DAD
:10042000222E2F3F6C323D003C666F6E7420636F4E
:100430006C6F723D677265656E3E4F4E003C666F35
:100440006E7420636F6C6F723D7265643E4F4646FA
:10045000003C2F613E205D2C204C45442032203A48
:10046000200030223E4F46460031223E4F4E003C97
:100470002F666F6E743E205B203C6120687265665B
:100480003D222E2F3F6C313D003C666F6E74206321
:100490006F6C6F723D677265656E3E4F4E003C66D5
:1004A0006F6E7420636F6C6F723D7265643E4F4671
:1004B00046004C45442031203A20003C2F666F6EA8
:1004C000743E3C2F623E3C2F613E3C62723E003CDB
:1004D0006120687265663D22687474703A2F2F77C8
:1004E00077772E617672706F7274616C2E636F6DA8
:1004F0002F22207461726765743D225F626C616EA9
:100500006B223E3C623E3C666F6E7420636F6C6F84
:10051000723D2223303030303939222073697A65B8
:100520003D222B31223E003C2F7469746C653E00E5
:100530003C7469746C653E00485454502F312E3021
:1005400020323030204F4B0D0A436F6E74656E744D
:100550002D547970653A20746578742F68746D6CC9
:100560000D0A0D0A00436F6E6E656374696F6E3A13
:10057000206B6565702D616C6976650D0A0D0A004A
:100580004B6565702D416C6976653A203330300DCE
:100590000A004163636570743A20746578742F684B
:1005A000746D6C0D0A00557365722D4167656E742C
:1005B0003A204156522065746865726E65740D0A62
:1005C00000486F73743A2031302E312E312E373679
:1005D0000D0A0020485454502F312E300D0A004788
:1005E0004554202F6176726E65742F736176652E87
:1005F0007068703F7077643D7365637265742674CC
:10060000656D703D006D006800656E007463006C80
:10061000636432006C636431006C32006C310073CF
:1006200069700061697000040404023C3C18456E66
:1006300061626C650044697361626C65004E6F7441
:1006400020666F756E642E0050696E67204F4B2ECA
:1006500000E500EF00F90003010E01180123012E4F
:1006600001390144014F015B01660172017E018A7B
:10067000019501A101AD01B901C501D101DD01E97A
:1006800001F40100020C02170223022E0239024477
:10069000024F025A0265026F02790284028E0297AB
:1006A00002A102AA02B402BD02C602CE02D702DF34
:1006B00002E702EF02F702FE0206030D0314031B1A
:1006C00003210328032E0334033A03400345034B5D
:1006D00003500355035A035F03630368036C0371FC
:1006E00003750379037D038103840388038B038FE0
:1006F000039203950398039B039E03A103A303A600
:1007000003A803AB03AD03B003B203B403B603B84D
:1007100003BA03BC03BE03C0034552524F520D0A35
:10072000005900534C4F4B0D0A00574C4F4B0D0ACC
:100730000053494F4B0D0A0053544F4B0D0A003BD9
:100740000D0A003B00300031003000310030003134
:100750000047414F4B0011241FBECFE5D8E0DEBF5C
:10076000CDBF10E0A0E6B0E0EAEAFDE202C00590ED
:100770000D92AA3EB107D9F711E0AAEEB0E001C090
:100780001D92A232B107E1F70E945A070C94D416C9
:100790000C940000C498962F9F71982B9FB9779B5B
:1007A000FECF1FB8779BFECF67FF03C01FB8779BB4
:1007B000FECFC49A8FB199270895C4986F71682BA2
:1007C0006FB9779BFECF4FB9779BFECFC49A089540
:1007D0001F93CF93DF93182FC82FDD27C076D070DB
:1007E0008091EA009927C817D90791F043E06FE19B
:1007F00080EA0E94DD0385E0D595C7958A95E1F7EB
:100800004C2F6FE180E80E94DD0310761093EA0020
:10081000DF91CF911F9108951F93182F0E94E80335
:10082000612F80E00E94CA0399271F9108950F93BA
:100830001F93082F162F0E94E803412F602F80E49A
:100840000E94DD031F910F9108950F931F93682F4E
:1008500084ED0E94170461E082ED0E9417048AEE85
:100860000E940C0480FDFBCF61E082ED0E94170422
:1008700088ED0E940C04082F112789ED0E940C04BA
:100880009927802B912B1F910F9108950F931F9300
:100890008B01682F84ED0E941704602F86ED0E9463
:1008A0001704612F87ED0E94170403C080E58A9525
:1008B000F1F78AEE0E940C0480FDF8CF1F910F9192
:1008C000089582E70E940C04992708950F931F93BF
:1008D000CF93DF938C01EB0164E282E00E94170466
:1008E0006AE183E00E941704CE018C5D682F86E0E8
:1008F0000E941704CC5DD54E6D2F7727C452DA4184
:1009000087E00E94170440E060E08AE70E94DD0370
:10091000C4988AE78FB9779909C0FDCF2197F8016C
:1009200080818FB9779BFECF0F5F1F4F2097B1F764
:10093000C49A48E06FE180E80E94DD038CE10E94E8
:100940000C0481FF05C048E06FE180EA0E94DD03EE
:10095000DF91CF911F910F910895BF92CF92DF92B7
:10096000EF92FF920F931F93CF93DF936C017B0164
:1009700089E30E940C04882319F480E090E05AC0B7
:100980006091EB0080E00E9417046091EC0081E030
:100990000E94170460E08AE30E94CA038093EB0080
:1009A00060E08AE30E94CA03B82E8093EC0060E006
:1009B0008AE30E94CA03C82F60E08AE30E94CA0348
:1009C000D82F249760E08AE30E94CA03082F60E0D2
:1009D0008AE30E94CA03B701615070406C177D071B
:1009E00008F4EB0107FD03C0C0E0D0E014C09E0195
:1009F000C4988AE38FB977990AC0FDCF1FB8779B57
:100A0000FECF8FB1F60181936F0121503040211547
:100A10003105A1F7C49A6091EB008CE00E941704A5
:100A20006B2D8DE00E94170440E46EE180E80E9487
:100A3000DD03CE01DF91CF911F910F91FF90EF90D9
:100A4000DF90CF90BF900895EF92FF920F931F9386
:100A50007C018B9A8A98929A939880E49CE90197FA
:100A6000F1F7939A00E010E0C8010197F1F787B31E
:100A7000806B87BBC49A88B38F7588BB80E58DB9BE
:100A8000709A4FEF60E08FEF0E94DD03C80101977D
:100A9000F1F71092EC001092EB0060E088E00E9409
:100AA000170460E089E00E94170460E08CE00E9477
:100AB000170460E08DE00E94170463E28AE00E9460
:100AC00017046AE18BE00E94170464E284E00E944C
:100AD00017046AE185E00E94170460E086E00E9446
:100AE000170460E287E00E9417046DE080EC0E942A
:100AF000170462E382EC0E94170460E483EC0E9416
:100B000017046FE389EC0E94170462E186EC0E94EF
:100B100017046CE087EC0E9417046EEE8AEC0E94CA
:100B2000170465E08BEC0E941704F701608184EEE6
:100B30000E941704F701618185EE0E941704F701F6
:100B4000628182EE0E941704F701638183EE0E94A6
:100B50001704F701648180EE0E941704F701658194
:100B600081EE0E94170460E071E080E10E9446047B
:100B700062E774E084E10E94460460EB88E30E942F
:100B800017046FE388E20E94170460E389E20E9481
:100B9000170469EF80E30E94170467EF81E30E9466
:100BA000170462E184EC0E9417048FE10E94E803BD
:100BB00040EC6BE180E80E94DD0344E06FE180E8F7
:100BC0000E94DD03C8010197F1F71F910F91FF907B
:100BD000EF90089588E190E028E00FB6F894A8958A
:100BE00081BD0FBE21BDFFCF4F925F926F927F926A
:100BF0008F929F92AF92BF92CF92DF92EF920F931C
:100C00001F93CF93DF93CDB7DEB7CE5ED5400FB63F
:100C1000F894DEBF0FBECDBF8091020184FFBEC03D
:100C200086FDBCC085FD2EC009E011E0A80161E190
:100C300071E02E010894411C511CC2010E94D90C84
:100C4000882321F4809102018F7E2CC01F930F9383
:100C5000E1E18E2EE1E09E2EAA24BB24CC24DD24EB
:100C600071E0E72E01E022E040EB54E060E570E047
:100C7000C2010E944E0D80910201806280930201A8
:100C80000F900F906EEE75E02E010894411C511CE0
:100C9000C2010E94AD04892B41F48091020187FFBB
:100CA0007DC08F748093020179C0C2010E94EE0D55
:100CB000882309F473C088A9823119F569E0662E8A
:100CC00061E0762E7F926F9251E1852E51E0952E54
:100CD000AA24BB2441E0C42ED12CEE2400E020E164
:100CE00040EB54E060E570E0C2010E944E0DC2018D
:100CF0000E9429087F926F925C01CC24DD2428E1B8
:100D000021C0883159F5C2010E940C0D39E0632ED3
:100D100031E0732E7F926F9221E1822E21E0922E9C
:100D2000AA24BB246C01EE2400E020E140EB54E057
:100D300060E570E0C2010E944E0D7F926F92CC245C
:100D4000DD2421E140EB54E060E570E0C2010E9447
:100D50004E0D0F900F900F900F9020C08131F1F445
:100D600089E091E09F938F9391E1892E91E0992EF4
:100D7000AA24BB2481E0C82ED12CEE2400E020E17F
:100D800040EB54E060E570E0C2010E944E0D80919E
:100D900002018F7C809302010F900F90C251DA4FB5
:100DA0000FB6F894DEBF0FBECDBFDF91CF911F917C
:100DB0000F91EF90DF90CF90BF90AF909F908F906A
:100DC0007F906F905F904F900895CF92DF92EF9257
:100DD000FF920F931F93CF93DF93CDB7DEB7C85F1A
:100DE000D5400FB6F894DEBF0FBECDBF8091020193
:100DF00085FD50C06EEE75E0CE010B960E94AD04ED
:100E0000892B09F447C0F5E0CF2ED12CCC0EDD1E86
:100E1000D601FE01719686E001900D928150E1F7B6
:100E20008E01055F1F4F61E070E0C8010E94530C06
:100E3000882329F0B601C8010E94730C2BC07E01E3
:100E40000894E11CF11C8DA19EA1AFA1B8A58983D6
:100E50009A83AB83BC83C8010E94EE0D8823D1F036
:100E6000A701B601C8010E94BB0E882399F4A7010F
:100E7000B601C8010E947E14882339F080910101D7
:100E800081FF08C00E94EA0505C0A701B601C8019C
:100E90000E946B0AC850DA4F0FB6F894DEBF0FBE3F
:100EA000CDBFDF91CF911F910F91FF90EF90DF9019
:100EB000CF90089581E48093030186E58093040137
:100EC00092E59093050180E5809306018FE480937D
:100ED00007019093080184E0EDE0F1E0A0E0B0E0CC
:100EE000182E0E94BE16E9E0F1E0A4E0B0E0182E52
:100EF0000E94BE168AB38F708ABB8BB3806F8BBB88
:100F000080B78B7F80BFBB9AC39A81E08EBD0E9461
:100F100001140E94C1130E94071184B3806C84BB2A
:100F200085B3806C85BB83E091E00E94240584E555
:100F300090E00E94B31308B602FEFDCF88B784602C
:100F400088BF80E096E09DBD8CBD0E94FE120E948D
:100F500006140E94E5060E94F4050E948C110E946E
:100F6000A412E9CFDC0140E031E020E05AE08D91AD
:100F7000982F90539A3040F4239F202D1124290F4D
:100F8000359F302D11240EC08E3229F0882319F0A0
:100F900080E090E00895FB01E40FF11D20834F5F96
:100FA00031E020E0443019F784E090E00895982F74
:100FB00080538A3010F499270895892F81568630FE
:100FC00020F49755892F99270895892F81548630C9
:100FD00018F080E090E008959753892F992708959D
:100FE000CF92DF92EF92FF920F931F93CF93DF93F5
:100FF0006C01EC0120C08B3211F480E218C0853204
:10100000B1F47E010894E11CF11CE7012196F7017F
:1010100080810E94D707082F112784E0000F111F3D
:101020008A95E1F7F70181810E94D707802BF601AD
:1010300081936F01219688818823E9F6F601108259
:10104000DF91CF911F910F91FF90EF90DF90CF90A4
:101050000895EF92FF920F931F93CF93DF93CDB735
:10106000DEB7C054D0400FB6F894DEBF0FBECDBF80
:101070008C010E9406149927AC0162E07E0108945D
:10108000E11CF11CC7010E945C0F1B8240E050E094
:101090006FED75E0C8010E942F0DAC01B701C801CA
:1010A0000E943F0DAC0163ED75E0C8010E942F0D59
:1010B000AC0161EC75E0C8010E942F0DAC0166EA3D
:1010C00075E0C8010E942F0DAC0162E975E0C8010E
:1010D0000E942F0DAC0160E875E0C8010E942F0D41
:1010E000AC0165E675E0C8010E942F0DC05CDF4FC2
:1010F0000FB6F894DEBF0FBECDBFDF91CF911F9129
:101100000F91FF90EF900895CF92DF92EF92FF92B0
:101110000F931F93CF93DF93CDB7DEB7C354D04067
:101120000FB6F894DEBF0FBECDBF7C0140E050E0AB
:1011300068E375E00E942F0DAC0160E375E0C70124
:101140000E942F0DAC0160E670E0C7010E942F0DD8
:10115000AC0167E275E0C7010E942F0DAC016FEC96
:1011600074E0C7010E942F0DAC0160E670E0C7017A
:101170000E942F0DAC016BEB74E0C7010E942F0D94
:10118000AC0162E870E0C7010E942F0DAC0162EB78
:1011900074E0C7010E942F0DAC01AE9B03C06EE945
:1011A00074E002C069E874E0C7010E942F0DAC0131
:1011B0006FE674E0C7010E942F0DAC01AE9B03C027
:1011C00069E674E002C062E674E0C7010E942F0D78
:1011D000AC0161E574E0C7010E942F0DAC01AF9B2B
:1011E00003C06DE374E002C068E274E0C7010E94CE
:1011F0002F0DAC016EE074E0C7010E942F0DAC0111
:10120000AF9B03C068E074E002C061E074E0C70116
:101210000E942F0DAC0162EF73E0C7010E942F0DF9
:10122000AC016AEE73E0C7010E942F0D8C0180E0D3
:101230000E94F01324E0C22ED12CCC0EDD1EAC0196
:1012400064E0C6010E945C0F1886A801B601C701C0
:101250000E943F0DAC0163ED73E0C7010E942F0DAA
:101260008C010E9406149927AC0162E0C6010E941D
:101270005C0F1E82A801B601C7010E943F0DAC01A0
:1012800068EC73E0C7010E942F0DAC0161EA70E0C9
:10129000C7010E942F0DAC016AE673E0C7010E94EE
:1012A0002F0DAC0183E0A8E0B0E0FE013196182ECE
:1012B0000E94BE168981882331F062E673E0C7017F
:1012C0000E942F0DAC0168E573E0C7010E942F0D4D
:1012D000AC016DE173E0C7010E942F0D8C014A81C2
:1012E000552762E0C6010E945C0F1E82A801B6016C
:1012F000C7010E943F0DAC0169ED72E0C7010E9479
:101300002F0D8C014B81552762E0C6010E945C0FB6
:101310001E82A801B601C7010E943F0DAC0167EA19
:1013200072E0C7010E942F0DAC0161EA70E0C701B5
:101330000E942F0DAC0168E672E0C7010E942F0DDC
:101340008C0140E06DE071E0C6010E949A0FA80197
:10135000B601C7010E943F0DAC0169E372E0C7010D
:101360000E942F0DAC0161EA70E0C7010E942F0DB1
:10137000AC016AEF71E0C7010E942F0D8C0140E0C3
:1013800069E071E0C6010E949A0FA801B601C70189
:101390000E943F0DAC0168EC71E0C7010E942F0D67
:1013A000AC0161EA70E0C7010E942F0DAC0160E85A
:1013B00071E0C7010E942F0DAC0168E371E0C70125
:1013C0000E942F0DAC0169E071E0C7010E942F0D52
:1013D000AC0162E870E0C7010E942F0DAC0162EC25
:1013E00070E0C7010E942F0DCD5BDF4F0FB6F89460
:1013F000DEBF0FBECDBFDF91CF911F910F91FF9048
:10140000EF90DF90CF900895CF92DF92EF92FF920E
:101410000F931F93CF93DF93EC018B016A01790146
:101420000E94270D99279C012E5D3F4FFE01E80F7A
:10143000F91FB29605C081918F3329F02F5F3F4F7E
:1014400020173107C0F32017310731F480E090E016
:1014500039C02F5F3F4F1DC0DE01A20FB31FF60141
:1014600080E012C054914C914D3321F4882311F047
:10147000552379F3451719F0F60180E002C0319643
:101480008F5F2F5F3F4F11962017310758F3882346
:10149000C1F0DE01A20FB31F40E050E0842F2C9179
:1014A000263229F04F5F5F4F1196203229F4E80E63
:1014B000F11CF701108205C0F701E80FF11D208330
:1014C000EDCF9927DF91CF911F910F91FF90EF9072
:1014D000DF90CF9008952F923F924F925F926F923C
:1014E0007F928F929F92AF92BF92CF92DF92EF92B4
:1014F0000F931F93CF93DF93CDB7DEB7C754D04080
:101500000FB6F894DEBF0FBECDBF2C0126967FAF7D
:101510006EAF269728965FAF4EAF2897FC0192A139
:1015200023A18789863009F076C184A1882309F038
:1015300072C185A1803509F06EC1892F9927382E97
:101540002224822F9927282A392A87A5992781FFC3
:101550001AC05F934F9326968EAC9FAC2697AA2411
:10156000BB2471E0C72ED12CEE2401E022E140E53E
:1015700050E0B101C2010E944E0D809102018064D1
:101580008093020124C084FF46C1C2010E940C0D59
:101590005C010097F9F4F20187A580FF3CC1289611
:1015A0008EAD9FAD28979F938F9326968EAC9FAC60
:1015B0002697AA24BB2461E0C62ED12CEE2400E09D
:1015C00020E140E550E0B101C2010E944E0D0F90B4
:1015D0000F9021C18E010C5F1F4F980143E256E02E
:1015E000BC01C2010E94040A8823B9F05DE0C52E47
:1015F00051E0D52EB601C8010E94B207843031F403
:10160000A0E0B0E0F601182E0E94C31684E0A0E02E
:10161000B0E0F601182E0E94BE168E010C5F1F4F1F
:1016200098014FE156E0B501C2010E94040A8823E7
:10163000B9F049E0C42E41E0D42EB601C8010E94A1
:10164000B207843031F4A4E0B0E0F601182E0E9415
:10165000C31684E0A4E0B0E0F601182E0E94BE1686
:101660009E012C5F3F4F4CE156E0B501C2010E9444
:10167000040A882331F08C81803311F4AE9A01C0C2
:10168000AE989E012C5F3F4F49E156E0B501C20183
:101690000E94040A882331F08C81803311F4AF9AC0
:1016A00001C0AF988E010C5F1F4F980144E156E0D6
:1016B000B501C2010E94040A882371F0C8010E948A
:1016C000F0078CE00E948A13C8010E94A613809143
:1016D000020184608093020198014FE056E0B50159
:1016E000C2010E94040A882371F0C8010E94F00719
:1016F0008AE00E948A13C8010E94A6138091020109
:1017000084608093020198014CE056E0B501C2016B
:101710000E94040A882309F445C0980149E056E074
:10172000B501C2010E94040A882319F081E089836F
:1017300001C019828E010C5F1F4F980147E056E0EF
:10174000B501C2010E94040A882349F08C812AE075
:10175000829FC00111242D81280F20512A839801D6
:1017600045E056E0B501C2010E94040A882349F011
:101770008C812AE0829FC00111242D81280F2051E5
:101780002B8383E048E050E0FE013196DA01182E09
:101790000E94C316E7E1F1E0DA01182E0E94BE169E
:1017A00010921A01C2010E9484083C012896EEADF5
:1017B000FFAD2897FF93EF9326968EAC9FAC2697AC
:1017C000AA24BB2431E0C32ED12CEE2400E020E17A
:1017D00040E550E0B101C2010E944E0D28968EAD49
:1017E0009FAD28979F938F9326968EAC9FAC26979C
:1017F0005301CC24DD2429E140E550E0B101C201D0
:101800000E944E0D809102018F7B809302010F9008
:101810000F900F900F90C95BDF4F0FB6F894DEBFAB
:101820000FBECDBFDF91CF911F910F91EF90DF9051
:10183000CF90BF90AF909F908F907F906F905F9070
:101840004F903F902F900895CF93DF93FC01168621
:1018500081E0878788E0808B118A86E0828B84E034
:10186000838B9B01DF0163E071E0E90189919E01B7
:10187000ED0188A3EB018991BE01ED018E8B1196DC
:1018800081E06930780789F7EA017C96ADE0B1E044
:10189000899182878D91819381E0A131B807C1F749
:1018A000DF91CF910895FC0184858830C9F4858546
:1018B0008630B1F48489871799F48589861781F475
:1018C000B696ADE0B1E090818C91981749F43196CD
:1018D000119681E0A131B807B1F781E090E0089559
:1018E00080E090E00895EF92FF920F931F938C0198
:1018F0007B01AB0166E078E00E944A0EF801148A91
:1019000082E0858BA801445E5F4FB701C8010E9449
:10191000240C6AE270E0C8010E9466041F910F91D6
:10192000FF90EF900895CF92DF92EF92FF920F9386
:101930001F93CF93DF93CDB7DEB726970FB6F894FA
:10194000DEBF0FBECDBF8C016B018FEF89838A8311
:101950008B838C838D838E837E010894E11CF11C24
:10196000A70166E078E0C8010E944A0E19821A8237
:101970001B821C821D821E82F801148A81E0858BE5
:10198000A601B701C8010E94240C6AE270E0C801F8
:101990000E94660426960FB6F894DEBF0FBECDBF38
:1019A000DF91CF911F910F91FF90EF90DF90CF903B
:1019B0000895EF92FF921F93CF93DF93EC017B0189
:1019C000BA010E94930C10E080E49CE90197F1F7C2
:1019D0006EEE75E0CE010E94AD04892B91F062E0BD
:1019E00070E0CE010E94530C882359F0D701FE010C
:1019F000369686E001900D928150E1F781E090E00B
:101A000005C01F5F1A3001F780E090E0DF91CF91B1
:101A10001F91FF90EF900895FC0180899927382F3E
:101A2000222781899927282B392B2451304086A5DC
:101A300082958F709927880F991F880F991F281BEF
:101A4000390B37FF02C020E030E0C9010895FC01E6
:101A500086A582958F70880F880F99270895DC01DD
:101A6000A40FB51FD69603C08D934F5F5F4FFB0148
:101A70006F5F7F4F84918823B9F7CA010895DB0116
:101A8000FC01E40FF51FF69604C0819311964F5F99
:101A90005F4F8C918823C9F7CA0108952F923F9216
:101AA0004F925F926F927F928F929F92AF92BF926E
:101AB000CF92DF92EF92FF920F931F93CF93DF931A
:101AC000CDB7DEB721970FB6F894DEBF0FBECDBFFE
:101AD0003C012B011A012983F02E8501A40160E04D
:101AE00078E00E944A0EC114D10479F0F301B9964E
:101AF00034E08081C80ED11C2481C4822083CD2C87
:101B0000DD24315031973323A1F7FF20B9F0F301E1
:101B100016A217A28091600080A711A68E5F809305
:101B2000600082E086AB84E087AB85E080AF80E830
:101B300081AF80E686A70C5F1F4F03C080E5F301ED
:101B400086A7B801685D7F4F2E893F8946E0C301B3
:101B50000E94070EEE2029F0F30112A613A614A688
:101B600015A68981F30187A754A245A232A223A218
:101B700085E080AB8AEB81AB14AA15AA12AA13AA3E
:101B8000065E1F4F9801442755270E5F1F4FB8016F
:101B9000C3014A960E94660EF30192AB83AB065EC8
:101BA0001F4FB801C3010E94660421960FB6F89436
:101BB000DEBF0FBECDBFDF91CF911F910F91FF9080
:101BC000EF90DF90CF90BF90AF909F908F907F90DD
:101BD0006F905F904F903F902F900895FC01848507
:101BE000883091F48585882379F4ADE0B1E0968D55
:101BF0008C91981749F43196119681E0A131B8077C
:101C0000B1F781E090E0089580E090E008950F93AF
:101C10001F93CF93DF93EC018C01025F1F4F85E48C
:101C20008E871F86788B698B809162008A8B80916A
:101C300061008B8B8091610090916200019690937E
:101C40006200809361001C8A1D8A80E88E8B4F8B16
:101C5000FE014DE051E0D9018D919D01868FDA01A1
:101C60008D91AD01828F3196B1E041315B0799F7DB
:101C7000188E198E20E030E040E050E064E170E022
:101C8000C8010E94660E988F898FDF91CF911F91B6
:101C90000F9108950F931F93CF93DF938C019A01B7
:101CA000FC01C3E0D1E0D9018D919D018083899130
:101CB00086833196B1E0C930DB07A9F7F801748754
:101CC0006587DF91CF911F910F910895CF93DF9397
:101CD000FC01EB01BA01A90110C080819927982F5E
:101CE000882721813327822B932BAA27BB27480FD4
:101CF000591F6A1F7B1F32962297C230D10568F7A1
:101D0000CD2B69F080819927982F8827AA27BB2798
:101D100002C060707070480F591F6A1F7B1FCB0193
:101D2000AA27BB270097A105B10599F7CA0180959D
:101D30009095DF91CF910895CF93DF93EC01DC0173
:101D400092968AA1883039F4FE01BA9681E4819393
:101D50008F5F8136E1F71CA21DA220E030E040E059
:101D600050E068E270E0CD010E94660E9CA38DA356
:101D7000DF91CF9108950F931F93CF93DF93EC01E1
:101D80008A018F89813011F58AA18830F9F4AB017D
:101D900060E078E0CE010E944A0E68897727762FAE
:101DA000662789899927682B792B980141E0CE0114
:101DB0000E94070E1AA2CE010E949C0E6AE470E0F7
:101DC000CE010E94660481E090E002C080E090E0D5
:101DD000DF91CF911F910F910895EF92FF920F9392
:101DE0001F938C017A01AB0160E078E00E944A0EFB
:101DF000970141E06CE370E0C8010E94070E88E0A3
:101E0000F80182A313A28091630086A317A2809198
:101E1000640080A711A6809163008F5F80936300A8
:101E2000809164008F5F80936400C8010E949C0EC3
:101E30006AE470E0C8010E9466041F910F91FF9050
:101E4000EF9008950F931F93CF93DF93EC018A01D6
:101E50000E94D90C8823F1F0A80161E171E0CE0164
:101E60000E94ED0E10E080E49CE90197F1F76EEE20
:101E700075E0CE010E94AD04892B49F08F89813035
:101E800031F48AA1882319F481E090E005C01F5F36
:101E90001A3049F780E090E0DF91CF911F910F91C8
:101EA0000895DC0101C08D93FB016F5F7F4F84912A
:101EB0008823C9F7CD010895FC019A01653040F0EF
:101EC000CA0160E177E20E94A216605D619302C0E0
:101ED000643061F4C90160E177E20E94A21668EE05
:101EE00073E00E94A216605D619302C0633060F0EF
:101EF000C90168EE73E00E94A21664E670E00E94D9
:101F0000A216605D619302C0623059F4C90164E6B3
:101F100070E00E94A2166AE070E00E94A216605D66
:101F20006193C9016AE070E00E94A216805D81930E
:101F3000CF0108950F931F93CF93DF93DC01EB0143
:101F4000042F10E0FE01E10FF11D4081443610F036
:101F500063E005C04A3010F062E001C061E0812F0B
:101F600099270196202F33278217930711F48EE7C4
:101F700003C0112359F08EE28D93CD0155270E94A5
:101F80005C0FDC011F5F1430E8F207C05527CD015C
:101F90000E945C0FDC0111E0D5CF1C92DF91CF9144
:101FA0001F910F9108950F931F93CF93DF93FC011F
:101FB000DB01042F442319F58C918823E1F0EB0118
:101FC000219610E0812F99278E5F9F4F11F48EE7A5
:101FD00004C0112309F442C08AE38193CF014881F0
:101FE000552762E00E945C0FFC011F5F133008F070
:101FF00047C02196E7CF65E376E0CF010EC04130C0
:1020000081F48EE781939F018C91882319F06EE211
:1020100076E002C065E376E0C9010E94510FFC0141
:102020002FC0EB01219610E0812F99270296202FD7
:1020300033278217930711F48EE703C01123B9F0F9
:102040008AE38193CF014881552762E00E945C0FAB
:10205000FC011F5F1330A0F42196E6CF499155276C
:1020600062E0CF010E945C0FFC0111E0ABCF49910F
:10207000552762E0CF010E945C0FFC0111E0D4CF34
:102080001082DF91CF911F910F91089520911C0133
:10209000222381F480911B01815080931B018823AE
:1020A00019F484E080931B01809102018260809387
:1020B00002010895213061F480911D0181508093C7
:1020C0001D01882309F042C084E080931D0108951A
:1020D000223071F4E0912001FF272DE031E0E20F82
:1020E000F31F80818150808384E0A0E0B0E00FC0C6
:1020F000233091F4E0912001FF2729E031E0E20F45
:10210000F31F80818150808384E0A4E0B0E0F90176
:10211000182E0E94C31608952430C1F48091200126
:102120009927FC01E65DF94F349147E151E0FC014C
:10213000E40FF51F8081815080838F3F09F4308345
:10214000A8E0B0E0FA01122E0E94C3160895209173
:102150001C01222381F480911B018F5F80931B015E
:10216000853019F481E080931B0180910201826027
:10217000809302010895213059F480911D018F5FF1
:1021800080931D01853009F041C020931D01089501
:10219000223071F4E0912001FF272DE031E0E20FC1
:1021A000F31F80818F5F808384E0A0E0B0E00FC0E8
:1021B000233091F4E0912001FF2729E031E0E20F84
:1021C000F31F80818F5F808384E0A4E0B0E0F90199
:1021D000182E0E94C31608952430C1F48091200166
:1021E0009927FC01E65DF94FE49147E151E0DC01FC
:1021F000A40FB51F8C918F5F8C938E1709F41C92DE
:10220000A8E0B0E0FA01122E0E94C31608951092C1
:102210001E0183E0E7E1F1E0A8E0B0E0182E0E94A3
:10222000BE1610921A011092020110920101109232
:102230001C0110921D011092210110921F01109299
:10224000200181E080931B0108950F931F93CF938A
:10225000DF93CDB7DEB7C054D0400FB6F894DEBFE1
:102260000FBECDBF80911C01882309F449C08CE0CA
:102270000E948A13E0911C01FF27EE0FFF1FE75514
:10228000FF4F808191810E94A6138AE00E948A13E9
:1022900080911C01813051F4E0911D01FF27EE0F68
:1022A000FF1FE555FF4F8081918128C0823031F4B6
:1022B000409120014F5F6DE071E019C0833021F43F
:1022C000409120014F5F11C0843061F440912001A2
:1022D0004F5F67E171E08E010F5F1F4FC8010E94E1
:1022E000D30F0BC0853061F441E069E071E08E01ED
:1022F0000F5F1F4FC8010E949A0FC8010E94A613CA
:10230000C05CDF4F0FB6F894DEBF0FBECDBFDF91CC
:10231000CF911F910F9108951F93CF93DF93CDB766
:10232000DEB7CE5ED5400FB6F894DEBF0FBECDBF90
:1023300019B3107F103F49F5809102018E7F809381
:102340000201809101018E7F809301011092EE00C5
:102350001092ED009091E800992309F4BBC08091A0
:10236000E70081508093E7008B3F08F4B3C08AEF09
:102370008093E700892F81508093E800813009F035
:10238000A9C01092E800C398A5C08FE18093E8002F
:10239000C39A8091EE008F5F8093EE00883C39F401
:1023A0001092EE0080910101816080930101809183
:1023B000010180FF14C08091ED008F5F8093ED00DC
:1023C0008E3169F41092ED00103B19F40E94A710B1
:1023D00004C0103711F40E9446100E94251180910C
:1023E000020180FD77C0103E09F04DC0E0911C0154
:1023F000EE2331F41092200181E080931C0151C042
:10240000E13061F4E093210180911D0180931F016F
:102410008F5F80931C01E0931D0154C0E53029F5C6
:102420008CE00E948A138091B3009091B4000E94C6
:10243000A6138AE00E948A1349E051E061E171E04D
:10244000CE0101960E94220F882319F088E496E0BD
:1024500002C08DE396E00E94B313809102011092B6
:102460001C0110921D01856033C0FF27EB5DF94F01
:10247000E491809120018F5F809320018E1711F5E8
:10248000109220011FC0103DA1F4109220018091F4
:102490001C01823048F08091210180931C018091C1
:1024A0001F0180931D010EC010921C0110921D018E
:1024B00009C0103B19F40E94A71004C0103711F492
:1024C0000E9446100E9425118091020181608B7F3D
:1024D00080930201C251DA4F0FB6F894DEBF0FBEEF
:1024E000CDBFDF91CF911F910895CF92DF92EF92F0
:1024F000FF920F931F93CF93DF936C0180E00E94B4
:10250000F0137C010E940614082FA70164E0C601A5
:102510000E945C0FFC018CE281931127A80162E00C
:10252000CF010E945C0FDC01FC018FED819383E4FD
:10253000ED0189831182DF91CF911F910F91FF905F
:10254000EF90DF90CF900895CF93DF93CDB7DEB7B4
:10255000C054D0400FB6F894DEBF0FBECDBF9091EF
:10256000020191FF41C0892F8D7F8093020192FD6E
:102570003BC080911C018823B9F58CE00E948A132E
:10258000E0911B01FF27EE0FFF1FE352FF4F8081F9
:1025900091810E94A6138AE00E948A1380911B01F8
:1025A000813021F440E06DE071E005C0823041F4FB
:1025B00040E069E071E0CE0101960E949A0F10C0E0
:1025C000833041F440E067E171E0CE0101960E9462
:1025D000D30F06C0843021F4CE0101960E947512FB
:1025E000CE0101960E94A613C05CDF4F0FB6F8948F
:1025F000DEBF0FBECDBFDF91CF91089580911E0148
:102600008F5F80931E018A3F09F050C010921E0117
:1026100090910201892F82608093020185FF0CC096
:102620008091EF008F5F8093EF00853029F4109246
:10263000EF00926890930201809117018823B1F115
:1026400080911C01843091F180911A018150809316
:102650001A018C3358F184E180931A018091190199
:102660008150809319018C3308F18BE38093190119
:10267000809118018150809318018831B8F049E0A9
:1026800050E0DA010E94B616802D809318014F5F4A
:102690005F4FDA010E94B616802D809319011092C7
:1026A0001A0180910201806180930201089592B322
:1026B0009F7092BB92B3807F982B92BB85E08A95E6
:1026C000F1F7C29A8AE08A95F1F7C29808951F93AC
:1026D000162FC098882311F0C09A01C0C09880E0DE
:1026E0008A95F1F7C298812F807F0E945713812F1E
:1026F0008295807F0E9457131F910895613011F0D9
:1027000060E401C060E0680F6150606880E00E9492
:1027100067130895682F8C3049F461E080E00E94CF
:10272000671380E49FE10197F1F708958A3029F457
:1027300062E081E00E947E130895883019F460E120
:1027400080E001C081E00E9467130895CF93DF937A
:10275000EC0103C021960E948A1388818823D1F757
:10276000DF91CF910895CF93DF93EC0102C00E94D7
:102770008A13FE01219684918823C9F7DF91CF91B6
:1027800008951F9381B3806F81BB87B3876087BB38
:1027900082B38F7082BBC09880E69AEE0197F1F702
:1027A00011E080E30E94571380E29EE40197F1F765
:1027B0001F5F1430B1F780E20E94571368E280E097
:1027C0000E9467136CE080E00E94671361E080E084
:1027D0000E94671366E080E00E9467131F910895CE
:1027E00097B1907E8F71982B97B9369A3699FECF14
:1027F00084B125B199273327322F2227822B932B9F
:10280000089587E886B980EC87B908951F931091E1
:10281000F00081E00E94F013E12FFF27EE0FFF1F71
:10282000EF50FF4F9183808320E030E0E1EFF0E054
:1028300081919191280F391F81E0E130F807C1F7AC
:10284000812F8F5F8093F000883011F41092F00098
:10285000B90153E0769567955A95E1F721E536E0A1
:1028600040E0F901859194918617970728F44F5F0E
:102870002E5F3F4F4436A9F7842F99271F91089563
:10288000DB01FC01E40FF51FBA9604C08193119699
:102890004F5F5F4F8C918823C9F7CA010895DC010F
:1028A000A40FB51F9A9603C08D934F5F5F4FFB0136
:1028B0006F5F7F4F84918823B9F7CA0108950F9302
:1028C0001F938C01CA012BE0F80122A328EB23A35C
:1028D00074A365A396A347A310A611A641969C01D5
:1028E000442755270997BC01C8014A960E94660EE5
:1028F000F80190A781A71F910F9108958F929F9241
:10290000AF92BF92CF92DF92EF92FF920F931F93FD
:10291000CF93DF93CDB7DEB7C354D0400FB6F89452
:10292000DEBF0FBECDBF6C015B014A01FC01878990
:10293000813109F0F1C184A18B3009F0EDC185A18D
:10294000883B09F0E9C1D6019A9682A5873409F03F
:10295000A1C083A5813409F09DC084A58D3009F004
:1029600099C085A58A3009F095C040E050E061E546
:1029700077E0C6010E944F14AE9904C0AC016FE429
:1029800077E003C0AC016DE477E0C6010E944F140C
:10299000AF9904C0AC016BE477E003C0AC0169E41B
:1029A00077E0C6010E944F147C0180E00E94F01382
:1029B0008E010C5F1F4FAC0164E0C8010E945C0FE8
:1029C0001886A701B801C6010E9440147C010E942C
:1029D00006149927AC0162E0C8010E945C0F1E82B8
:1029E000A701B801C6010E9440147C0183E0A8E061
:1029F000B0E0FE013196182E0E94BE168981882310
:102A000021F0A70167E477E003C0A70165E477E060
:102A1000C6010E944F147C014A8155278E010C5F2C
:102A20001F4F62E0C8010E945C0F1E82A701B8011F
:102A3000C6010E9440147C014B81552762E0C80109
:102A40000E945C0F1E82A701B801C6010E944014BB
:102A50007C0140E06DE071E0C8010E949A0FA7017F
:102A6000B801C6010E944014AC0163E477E0C601DE
:102A70000E944F147C0140E069E071E0C8010E94AF
:102A80009A0FA701B801C6010E944014AC016FE380
:102A900077E012C18C91833599F5F60183A58435D1
:102AA00079F581A98D3061F532A93A3049F584A5CF
:102AB0008053898385A5839FC001112426A5280FF3
:102AC00020512A8387A5839FC001112420A9280FA4
:102AD00020512B8383E048E050E0FE013196DA017B
:102AE000182E0E94C316E7E1F1E0DA01182E0E94C9
:102AF000BE1610921A0140E050E068E377E0DCC0B7
:102B00008C91833509F05FC0F60183A5893409F003
:102B10005AC0EC5AFF4F9AE280818D3019F48181BE
:102B20008A3021F09F5F31969A3AB1F720E030E089
:102B3000022FF601E20FF11D82A52F5F3F4F8B336D
:102B4000B9F7102F12A62DE0E22E21E0F22EB701E8
:102B5000C6018C960E94B207843031F4A0E0B0E048
:102B6000F701182E0E94C31684E0A0E0B0E0F70140
:102B7000182E0E94BE1601C00F5FF601E00FF11D76
:102B800082A58B33C9F712A61F5FC601810F911D65
:102B900069E071E08A960E94B207843039F4EDE072
:102BA000F1E0A4E0B0E0182E0E94C31684E0EDE04E
:102BB000F1E0A4E0B0E0182E0E94BE1640E050E024
:102BC00061E377E079C08C918735C1F5F60183A583
:102BD0008C34A1F5EC5AFF4F9AE280818D3019F4C4
:102BE00081818A3021F09F5F31969A3AB1F720E0D7
:102BF00030E0922FF601E20FF11D82A52F5F3F4FCB
:102C00008B33B9F78AE082A701C09F5FF601E90F15
:102C1000F11D82A58B33C9F712A68CE00E948A139E
:102C2000C6018C960E94A613809102018460809355
:102C3000020140E050E06AE277E03EC08C918335CB
:102C4000E1F4F60183A58C34C1F486A58D30A9F496
:102C500087A58A3091F484A5803311F4AE9A01C01F
:102C6000AE98F60185A5803311F4AF9A01C0AF98F4
:102C700040E050E063E277E01FC08C918235C1F400
:102C8000F60183A58335A1F484A58D3089F485A54B
:102C90008A3071F440E050E061E277E0C6010E94C2
:102CA0004F147C018091010182608093010108C072
:102CB00040E050E069E177E0C6010E944F147C01DA
:102CC000A50160E078E0C6010E944A0E8CE190E028
:102CD000E80EF91E940141E1B701C6010E94070EFA
:102CE000ACEEBFEFEA0EFB1EF60162A183A17727CF
:102CF000762F66279927682B792BA701C6010E949A
:102D00005F1482E290E0E80EF91EB701C6010E944E
:102D1000660481E090E002C080E090E0CD5BDF4F90
:102D20000FB6F894DEBF0FBECDBFDF91CF911F91DC
:102D30000F91FF90EF90DF90CF90BF90AF909F905A
:102D40008F900895AA1BBB1B51E107C0AA1FBB1F90
:102D5000A617B70710F0A61BB70B881F991F5A9527
:102D6000A9F780959095BC01CD010895E199FECF1A
:102D7000BFBBAEBBE09A11960DB20895F7DF01928A
:102D80001A94E1F70895019003D01A94E1F7089599
:102D9000E199FECFBFBBAEBB0DBA11960FB6F8944A
:0A2DA000E29AE19A0FBE0895FFCFFA
:102DAA000A010001014D61696E206D656E75004171
:102DBA00565220495020636F6E66696700536572E8
:102DCA0076657220495020636F6E666967005365A5
:102DDA006E642074656D7020636F6E66696700505B
:102DEA00696E67207365727665720065006F007D93
:102DFA00008E009F0041565220495000536572765A
:102E0A0065722049500053656E642074656D7020A8
:102E1A00696E004144433020262054656D7000B528
:0A2E2A0000BC00C600D300FA1F0030
:00000001FF
